:1011F800462D2D2D2D2D253264002D2D2D2D202011
:0C12080020200031323433202020200050
:1011D8004100430041003000410036004100370023
:0F11E80041004200410035004400314C18968010
:0B122B00E4F580F590F5A075B0FF22FF
:1011740012122B900031E0FCA3E0FDA3E0FEA3E0FB
:10118400FF9000011205707F01120BD8900031E02E
:10119400FCA3E0FDA3E0FEA3E0FF900001120570B4
:0D11A4007F01120BD81210461210CB80DF15
:10104600900035E024FE603724027042900003745D
:10105600FFF0A37411F0A374F8F07B007A2479747E
:101066007849900031E0FCA3E0FDA3E0FEA3E0FF99
:101076001202041202A1900006EEF0A3EF801C906B
:10108600000374FFF0A37412F0A37402800D9000A5
:101096000374FFF0A37412F0A3740BF07B017A00C3
:1010A60079381206589000037401F0A37400F0A377
:1010B6007444F07B017A007938120A767B017A0053
:0510C6007944020F2037
:1010CB00120D18900030EFF0900037E06F5F90003A
:1010DB0036F0FDF4900042F0900037EFF0ED24FE77
:1010EB00602214603E24027040900031E0FCA3E0CB
:1010FB00FDA3E0FEA3E0FF7B007A2479747849120C
:10110B00000A8019900031E0FCA3E0FDA3E0FEA3F0
:10111B00E0FF7B007A247974784912000690003145
:0A112B00020570900035E004F02288
:100D1800E4900000F07590F7E59064F760387FE89C
:100D28007E03121241AF90EF2449601424E060184A
:100D380024F0601C2470701E9000007401F080166E
:100D48009000007405F0800E9000007409F0800691
:100D5800900000740DF0E590B4F7FB7590FBE590FA
:100D680064FB60387FE87E03121241AF90EF2445A0
:100D7800601424E0601824F0601C2470701E900039
:100D8800007402F080169000007406F0800E900047
:100D980000740AF08006900000740EF0E590B4FB31
:100DA800FB7590FDE59064FD60387FE87E031212C4
:100DB80041AF90EF2443601424E0601824F0601CD5
:100DC8002470701E9000007403F080169000007468
:100DD80007F0800E900000740BF0800690000074FD
:100DE8000FF0E590B4FDFB7590FEE59064FE603869
:100DF8007FE87E03121241AF90EF2442601424E092
:100E0800601824F0601C2470701E9000007404F0B8
:100E180080169000007408F0800E900000740CF0AA
:100E280080069000007410F0E590B4FEFB9000007E
:020E3800E0FFD9
:010E3A002295
:0B123600C2A5C2A1C2A0D2A0C2A0228B
:10121400C2A5C2A1C2A0D2A0C2A0C2A5D2A5C2A585
:07122400C2A1D2A1C2A12268
:050E3B0090004CEFF0F7
:100E400090005512057C4BB60B6090004DE0FCA362
:100E5000E0FDA3E0FEA3E0FF7B007A2479747849EB
:100E600012020490004D12057090004DE0FCA3E0CA
:100E7000FDA3E0FEA3E0FF900055E0F8A3E0F9A396
:100E8000E0FAA3E0FB1200FB90004D120570900009
:100E90004DE0FCA3E0FDA3E0FEA3E0FF1202A19061
:100EA000005112057090004CE0F590D2A5C2A590BB
:100EB0000051E0FCA3E0FDA3E0FEA3E0FF781812E0
:100EC000055C8F90D2A5C2A5900051E0FCA3E0FD87
:100ED000A3E0FEA3E0FF781012055C8F90D2A5C2BC
:100EE000A5900051E0FCA3E0FDA3E0FEA3E0FF78A5
:100EF0000812055C8F90D2A5C2A5900051E0FCA31A
:100F0000E0FDA3E0FEA3E0FF7900780012055C900D
:0F0F100000511205708F90D2A5C2A5D2A1C2A127
:010F1F0022AF
:050BD800900000EFF0A9
:100BDD0090000912057C4BB60B60900001E0FCA360
:100BED00E0FDA3E0FEA3E0FF7B007A247974784951
:100BFD00120204900001120570900001E0FCA3E0C8
:100C0D00FDA3E0FEA3E0FF900009E0F8A3E0F9A347
:100C1D00E0FAA3E0FB1200FB9000011205709000BA
:100C2D0001E0FCA3E0FDA3E0FEA3E0FF1202A19012
:100C3D000005120570900005E0FCA3E0FDA3E0FEA9
:100C4D00A3E0FF7900780012055C90000512057095
:100C5D00E4FEA806EF088002C313D8FC1392A7D2B6
:100C6D00A5C2A50EEEB408EA900005E0FCA3E0FDD8
:100C7D00A3E0FEA3E0FF780812055CE4FEA806EFF2
:100C8D00088002C313D8FC1392A7D2A5C2A50EEEFD
:100C9D00B408EA900005E0FCA3E0FDA3E0FEA3E0AC
:100CAD00FF781012055CE4FEA806EF088002C3135E
:100CBD00D8FC1392A7D2A5C2A50EEEB408EA9000F7
:100CCD0005E0FCA3E0FDA3E0FEA3E0FF781812050C
:100CDD005CE4FEA806EF088002C313D8FC1392A7AC
:100CED00D2A5C2A50EEEB408EA900000E0FFE4FE26
:100CFD00A806EF088002C313D8FC1392A7D2A5C291
:0A0D0D00A50EEEB408EAD2A1C2A1BF
:010D170022B9
:10113500EE543FFEAD07E4FBA803ED088002C313A0
:10114500D8FC1392A7D2A5C2A50BEBB408EAEE54BE
:101155003FFDE4FBA803ED088002C313D8FC1392FE
:0E116500A7D2A5C2A50BEBB406EAD2A1C2A187
:011173002259
:0B124100EF1FAC0670011E4C70F6227F
:0B0A7600900000EBF0A3EAF0A3E9F011
:100A8100E4900006F0A3F0900006F0900006E0D399
:100A910094074003020BD7900000E0FBA3E0FAA308
:100AA100E0F9900007E0F5827583001204ED12056C
:100AB100CD0B76200B6E2D0AEC300AF5310AFE3291
:100AC1000B06330B0E340B16350B1E360B26370B6C
:100AD1002E380B36390B3E410B46420B4E430B561B
:100AE100440B5E450B664600000B7D900008743F89
:100AF100F0020B839000087406F0020B839000084B
:100B0100745BF0807D900008744FF0807590000850
:100B11007466F0806D900008746DF0806590000837
:100B2100747DF0805D9000087407F0805590000896
:100B3100747FF0804D900008746FF080459000083C
:100B41007477F0803D900008747CF0803590000847
:100B51007439F0802D900008745EF08025900008B3
:100B61007479F0801D9000087471F0801590000870
:100B71007440F0800DE4900008F080069000087445
:100B8100FFF0900007E02401FFE433FE900000E055
:100B9100FBA3E0FAA3E0F98F828E831204EDB42E59
:100BA1000D900008E05480F0900007E004F0900000
:100BB10008E0FF900003E0FBA3E0FAA3E0F9A3E063
:100BC100F582758300EF12052C900006E004F0A376
:060BD100E004F0020A8CB2
:010BD70022FB
:0B0F2000900000EBF0A3EAF0A3E9F062
:100F2B00E4A3F0F0900003E0FFC394084003020F2A
:100F3B00B9EFB40800504D900F49F8282873020FF1
:100F4B0061020F65020F69020F6D020F71020F79BB
:100F5B00020F81020F89D2A4800ED2A48012D2A4D8
:100F6B008016D2A4801AC2A4D2A3D2A28016C2A485
:100F7B00D2A3C2A2800EC2A4C2A3D2A28006C2A4D4
:100F8B00C2A3C2A2900000E0FBA3E0FAA3E0F9A386
:100F9B00E0F5827583001204EDF5807F647E00120C
:0E0FAB001241E4F580900003E004F0020F2FE5
:010FB9002215
:1000030002030DE86480F8E933E83360110460F01B
:10001300ED33EC337009E8FCE9FDEAFEEBFF220463
:1000230060DED3EB9FEA9EE99DE8C2E78CF0C2F75E
:1000330095F0400CE8CCF8E9CDF9EACEFAEBCFFB2A
:100043001202D885D0F05804700320D5B3E80470A9
:10005300075002B2D502031792D5EC0460F7E4CC43
:10006300C0E0C398F8603B94186008400DD0E0FBF3
:100073000202EFE4FBFAC9FC8028E830E406E4C995
:10008300FBE4CAFCE830E305E4C9CACBFCE8540747
:100093006010F8C3E913F9EA13FAEB13FBEC13FC52
:1000A300D8F130F52FC3E49CFCEF9BFFEE9AFEEDF5
:1000B30099FDD0E0FBEF4E4D4C701222DB0302039F
:1000C30014EC2CFCEF33FFEE33FEED33FDED30E7A4
:1000D300EB0202EFEF2BFFEE3AFEED39FDD0E0FB32
:1000E30050130BBB0003020317ED13FDEE13FEEFDA
:0800F30013FFEC13FC0202EF05
:1000FB00EC4D6011E8497017ED33EC3304600DE4FF
:10010B00FCFFFEFD22E933E8330470F802030D1205
:10011B0002D858046009E4CC248150062850090207
:10012B000317284003020314C0E0EB4A7044B98064
:10013B0006D0E0FB020303EF4E701CBD8008EBFF03
:10014B00EAFEE9FD80EBE98DF0A4FEE5F00201E4A7
:10015B00E9CDF9EAFEEBFFEF89F0A4FCE5F0CE89DF
:10016B00F0A42EFFE435F0CD89F0A42DFEE435F09C
:10017B008067EF4E7005BD80D780C3EF8BF0A4ACCA
:10018B00F0EE8BF0A42CFCE435F0F8EF8AF0A42C05
:10019B00E5F038FCE433CB8DF0A42CFCE5F03BF818
:1001AB00EE8AF0A42CFCE5F038F8E433CF89F0A408
:1001BB002CFCE5F038CF3400CE89F0A42FFFE5F00E
:1001CB003EFEE433C98DF0A42EFEE5F039CD8AF066
:1001DB00A42FFFE5F03EFEE43DFD33D0E0FB5007DE
:1001EB000BBB000F020317EC2CFCEF33FFEE33FEBF
:0601FB00ED33FD0202EFEE
:10020100020317EC5D046005E85904700302030D55
:100211001202D8580460F6EC4860F2EC7004FDFE5E
:10022100FF22C860DB2481C85009C39860025006D0
:100231000203149850CAF582E9294B4A7005AB8232
:1002410002030375F0007C1A7880C3EF9BEE9AEDF0
:1002510099400DC3EF9BFFEE9AFEED99FDE842F048
:10026100DC23ACF0D0E0FFD0E0FED0E0FDAB82209B
:10027100E7101BEB60BAEC2CFCEF33FFEE33FEED25
:1002810033FD0202EFE803F830E705C0F075F00036
:10029100EF2FFFEE33FEED33FD40B830E7C280AA09
:1002A100EDD2E7CD33EC3392D524814006E4FFFE55
:1002B100FDFC22FCE4CFCECDCC24E0501174FF80B4
:1002C100EDC3CC13CCCD13CDCE13CECF13CF047051
:0702D100F030D5DE02054EFE
:1005F300E5082403F582E43400F583E0050822903E
:100603000000300703900003E475F0011205AD020A
:1006130004D42000E97F2ED2008018EF540F2490D9
:10062300D43440D4FF30040BEF24BFB41A0050037A
:100633002461FFE50960021509050CE50C7002054C
:100643000B30070E900000E475F0011205ADEF02C8
:10065300051A0211B17403D2078003E4C207F50837
:100663009000001205C4E4F509F50BF50CE50960EB
:10067300077F2012063680F5750AFFC201C200C249
:1006830002C203C205C206C208120602FF700D3081
:1006930007057F00120647AF0CAE0B22B4255FC2DD
:1006A300D5C204120602FF24D0B40A00501A75F012
:1006B3000A780930D50508B6FF0106C6A426F62038
:1006C300D5047002D20380D924CFB41A00EF5004AA
:1006D300C2E5D204020939D20180C6D20080C0D259
:1006E3000280BCD2D580BAD20580B47F20120636F0
:1006F3002002077401B5090040F11205F3FF120649
:1007030036020670D208D20680951205F3FB120555
:10071300F3FA1205F3F94A4B700679377A0A7BFF2D
:1007230020022EE509602A7E008E82758300120462
:10073300ED60060EEE650A70F0C2D5EBC0E0EAC0CC
:10074300E0E9C0E0EE12099AD0E0F9D0E0FAD0E097
:10075300FB1204D4FF60AAEBC0E0EAC0E0E9C0E00A
:10076300120636D0E02401F9D0E03400FAD0E0FBE1
:10077300E50A0460DCD50AD98087D20280A2120977
:100783007C60F7E50A700104120322A90A600DE5F3
:100793000A600914F50A120A24EF60F3EA30E7024B
:1007A300F404C3995079EAF4250A0430E701E40418
:1007B300F50A800D12097C60C1EA050A250A1203B5
:1007C30022EA90002FF030E701E4250A04D50A0459
:1007D3002005011412099AE4C0E0120A2490002FA4
:1007E300E0601320E70714F012061E802204F0D005
:1007F300E014C0E07F0012061EE50A60071206152A
:10080300150A800B300503120615D0E0020670D0DE
:10081300E00480C412097C609EE50A04120322905E
:10082300002FEAF0E50A20050260010424041209FE
:010833009A2A
:1008340074FF04C0E0120A2412061EE50A20050211
:100844006003120615D0E0B50AE87F451206289029
:10085400002FE07F2B30E7047F2DF404C0E0120664
:1008640036D0E075F00A84C0F012061FD0E01206FC
:100874001F020670791080027908C206C208800837
:10088400D2D5790A8004790AC2D5E50A047002F542
:100894000AE4FAFDFEFF1205F3FC7B0820011312A3
:1008A40005F3FD7B1030000A1205F3FE1205F3FF79
:1008B4007B20EC3382D592D55013C3E43000069FDD
:1008C400FFE49EFEE42001039DFDE49CFCE4CBF8E0
:1008D400C201EC700CCFCECDCCE824F8F870F380D4
:1008E40017C3EF33FFEE33FEED33FDEC33FCEB3394
:1008F400FB994002FB0FD8E9EB300105F8D0E0C4C6
:1009040048B201C0E00AEC4D4E4F78207B0070C223
:10091400EAB50A0040BCC0E012099CD0F0D0E02047
:100924000104C4C0E0C4B201C0F012061FD0F0D567
:10093400F0EB0206701205CD070D5308785806DE59
:100944004C06DA42087C4F08844408844906F34381
:10095400088A5507B7460817450781470A575006BE
:10096400E22D06E62E07092B06EA230707200A4094
:100974002A06A24800000701E50AB4FF03750A0627
:100984001205F3FC1205F3FD1205F3FE1205F3FF45
:1009940090002802035F790AA2D5200314300509C8
:1009A400B910020404B9080104A2D52006025001BA
:1009B400042002689202B509005034C0E07F203060
:1009C40003197F30A20272067205500F1209F3C296
:1009D40002C206C205C2087F30800F300503E9C099
:1009E400E0120636300503D0E0F9D0E0B509CC308A
:1009F40005177F30B9100C1206367F583004077F74
:100A0400788003B908031206363002057F2D0206EA
:100A1400367F202008F87F2B2006F322920280CF15
:100A24007F00B40700500B2428F582E43400F583DA
:100A3400E0FF22286E756C6C2900D2011205F33098
:100A440001F8C201780930D50108F60206A22D503A
:100A54004349581205F32403B405004001E4900A05
:100A64005293120627743A120627D2037509040218
:020A7400087800
:1002D800E9D2E7C933E833F892D5EDD2E7CD33EC6C
:0702E80033FC5002B2D522E5
:1002EF00EC30E7100FBF000C0EBE00080DBD000470
:1002FF000BEB6014A2D5EB13FCED92E7FD2274FF1C
:10030F00FCFDFEFF22E480F8A2D574FF13FC7D8074
:03031F00E480EF88
:10032200F920E73624F950037907E4F42402FBE5C7
:1003320082158270021583DBF6E024FB501BE96014
:1003420014E4F0E582158270021583E004F0B40A29
:0D03520008E4F0D9EE7401F00A22C2D522B1
:10035F00ED33EC3392D5FA602AB4FF33EDC2E77B6D
:10036F00FF60067A037984E4227A03798D20D5041D
:10037F007A037988224E614E002B494E46002D4953
:10038F004E4600E47A08F0A3DAFC7B00740722C023
:10039F0083C082ECC0E0EDC0E0EEC0E0EFC0E0EA69
:1003AF0075F010A4CAABF075F04DA42BFBE435F03B
:1003BF00FCEA2410FAEB34C5FBEC34D9FCEDC2E7B0
:1003CF00FF75F056A4F42411C5F0F434C58FF0A4D2
:1003DF002AE5F03BE43CF020E714120494D0E0FF50
:1003EF00D0E0FED0E0FDD0E0FC1202048014F40453
:1003FF00120494D0E0FFD0E0FED0E0FDD0E0FC127C
:10040F0000FBD082D083E0FAEDD2E7CD33EC33247A
:10041F0082FBE4C3CF33CFCE33CECD33CD33DBF33B
:10042F007B0775F00A846004F0A31B0AE5F0F0A3C4
:10043F008FF0740AA4FFACF08EF0740AA42CFEACFB
:10044F00F050010C8DF0740AA42CFDE435F0F0A3EC
:05045F00DBDE74072242
:100464003F8000004120000042C80000447A0000A0
:10047400461C400047C35000497424004B18968022
:100484004CBEBC205A0E1BCA6753C21C749DC5AE19
:10049400FB60065407601C23231204C2EB5438602B
:1004A400091204AE1204BD1200FBECF8EDF9EEFAE9
:1004B400EFCB22EB1204BD80F1543803241C9004CA
:1004C40064FE93FC0EEE93FD0EEE930ECE93FF228C
:03000000020FBA32
:0C0FBA00787FE4F6D8FD7581210210015B
:1004D400BB010689828A83E0225002E722BBFE0226
:0904E400E32289828A83E4932259
:1004ED00BB010CE58229F582E5833AF583E02250C4
:1004FD0006E92582F8E622BBFE06E92582F8E2220E
:0D050D00E58229F582E5833AF583E4932227
:10051A00BB010689828A83F0225002F722BBFE01C0
:02052A00F322BA
:10052C00F8BB010DE58229F582E5833AF583E8F005
:10053C00225006E92582C8F622BBFE05E92582C8B1
:02054C00F22299
:0E054E00C3E49FFFE49EFEE49DFDE49CFC22BE
:10055C00E86010ECA2E713FCED13FDEE13FEEF13B5
:04056C00FFD8F022A2
:0C057000ECF0A3EDF0A3EEF0A3EFF022FE
:10057C00A8828583F0D083D0821205931205931242
:10058C000593120593E473E493A3C583C5F0C58367
:10059C00C8C582C8F0A3C583C5F0C583C8C582C8C9
:0105AC00222C
:1005AD00F8E0FBA3A3E0F925F0F0E58215827002D7
:0705BD001583E0FA38F0227B
:0905C400EBF0A3EAF0A3E9F02238
:1005CD00D083D082F8E4937012740193700DA3A3BD
:1005DD0093F8740193F5828883E4737402936860D1
:0605ED00EFA3A3A380DFD1
:1011B100EFB40A07740D1211BC740A309811A89982
:1011C100B8130CC2983098FDA899C298B811F6309E
:0711D10099FDC299F5992276
:100FC600021174E493A3F8E493A34003F68001F2BC
:100FD60008DFF48029E493A3F85407240CC8C3332C
:100FE600C4540F4420C8834004F456800146F6DFFB
:100FF600E4800B01020408102040809011D8E47EA2
:10100600019360BCA3FF543F30E509541FFEE493EF
:10101600A360010ECF54C025E060A840B8E493A3B6
:10102600FAE493A3F8E493A3C8C582C8CAC583CAE1
:10103600F0A3C8C582C8CAC583CADFE9DEE780BE99
:0111F70000F7
:00000001FF
